{
  "_format": "hh-sol-artifact-1",
  "contractName": "Voting",
  "sourceName": "contracts/Voting.sol",
  "abi": [
    {
      "inputs": [],
      "stateMutability": "nonpayable",
      "type": "constructor"
    },
    {
      "inputs": [],
      "name": "Voting_CandidatesRequired",
      "type": "error"
    },
    {
      "inputs": [],
      "name": "Voting__NotOwner",
      "type": "error"
    },
    {
      "anonymous": false,
      "inputs": [],
      "name": "CandidatesAdded",
      "type": "event"
    },
    {
      "anonymous": false,
      "inputs": [
        {
          "indexed": true,
          "internalType": "string",
          "name": "id",
          "type": "string"
        },
        {
          "indexed": true,
          "internalType": "int16",
          "name": "voteCount",
          "type": "int16"
        }
      ],
      "name": "VotedSuccessfully",
      "type": "event"
    },
    {
      "inputs": [],
      "name": "getCandidatesId",
      "outputs": [
        {
          "internalType": "string[]",
          "name": "",
          "type": "string[]"
        }
      ],
      "stateMutability": "view",
      "type": "function"
    },
    {
      "inputs": [
        {
          "internalType": "string",
          "name": "_id",
          "type": "string"
        }
      ],
      "name": "getMayorCandidateById",
      "outputs": [
        {
          "components": [
            {
              "internalType": "string",
              "name": "id",
              "type": "string"
            },
            {
              "internalType": "string",
              "name": "name",
              "type": "string"
            },
            {
              "internalType": "string",
              "name": "image",
              "type": "string"
            },
            {
              "internalType": "string",
              "name": "party",
              "type": "string"
            },
            {
              "internalType": "int16",
              "name": "voteCount",
              "type": "int16"
            }
          ],
          "internalType": "struct Voting.Candidate",
          "name": "",
          "type": "tuple"
        }
      ],
      "stateMutability": "view",
      "type": "function"
    },
    {
      "inputs": [],
      "name": "getOwner",
      "outputs": [
        {
          "internalType": "address",
          "name": "",
          "type": "address"
        }
      ],
      "stateMutability": "view",
      "type": "function"
    },
    {
      "inputs": [
        {
          "internalType": "address",
          "name": "user",
          "type": "address"
        }
      ],
      "name": "isOwner",
      "outputs": [
        {
          "internalType": "bool",
          "name": "",
          "type": "bool"
        }
      ],
      "stateMutability": "view",
      "type": "function"
    },
    {
      "inputs": [
        {
          "internalType": "address",
          "name": "user",
          "type": "address"
        }
      ],
      "name": "isVoted",
      "outputs": [
        {
          "internalType": "bool",
          "name": "",
          "type": "bool"
        }
      ],
      "stateMutability": "view",
      "type": "function"
    },
    {
      "inputs": [
        {
          "components": [
            {
              "internalType": "string",
              "name": "id",
              "type": "string"
            },
            {
              "internalType": "string",
              "name": "name",
              "type": "string"
            },
            {
              "internalType": "string",
              "name": "image",
              "type": "string"
            },
            {
              "internalType": "string",
              "name": "party",
              "type": "string"
            },
            {
              "internalType": "int16",
              "name": "voteCount",
              "type": "int16"
            }
          ],
          "internalType": "struct Voting.Candidate[]",
          "name": "_candidates",
          "type": "tuple[]"
        }
      ],
      "name": "setMayorCandidates",
      "outputs": [],
      "stateMutability": "nonpayable",
      "type": "function"
    },
    {
      "inputs": [
        {
          "internalType": "string",
          "name": "_id",
          "type": "string"
        }
      ],
      "name": "voteMayor",
      "outputs": [],
      "stateMutability": "nonpayable",
      "type": "function"
    }
  ],
  "bytecode": "0x60a060405234801561001057600080fd5b503373ffffffffffffffffffffffffffffffffffffffff1660808173ffffffffffffffffffffffffffffffffffffffff1681525050608051611656610067600039600081816101d9015261020001526116566000f3fe608060405234801561001057600080fd5b506004361061007d5760003560e01c8063cbff75cb1161005b578063cbff75cb146100ec578063f3332fc91461011c578063fbf690af1461013a578063fecc16c0146101565761007d565b80632f54bf6e14610082578063893d20e8146100b2578063bd8d27a9146100d0575b600080fd5b61009c60048036038101906100979190610b3c565b610186565b6040516100a99190610b84565b60405180910390f35b6100ba6101d5565b6040516100c79190610bae565b60405180910390f35b6100ea60048036038101906100e59190610f34565b6101fd565b005b61010660048036038101906101019190610b3c565b6104dc565b6040516101139190610b84565b60405180910390f35b610124610531565b60405161013191906110be565b60405180910390f35b610154600480360381019061014f91906110e0565b61065b565b005b610170600480360381019061016b91906110e0565b6107aa565b60405161017d91906111c3565b60405180910390f35b60006101906101d5565b73ffffffffffffffffffffffffffffffffffffffff168273ffffffffffffffffffffffffffffffffffffffff16036101cb57600190506101d0565b600090505b919050565b60007f0000000000000000000000000000000000000000000000000000000000000000905090565b337f000000000000000000000000000000000000000000000000000000000000000073ffffffffffffffffffffffffffffffffffffffff168173ffffffffffffffffffffffffffffffffffffffff1614610283576040517fc63501f300000000000000000000000000000000000000000000000000000000815260040160405180910390fd5b6001825110156102bf576040517f5683750400000000000000000000000000000000000000000000000000000000815260040160405180910390fd5b60005b82518110156104ab578281815181106102de576102dd6111e5565b5b602002602001015160016040518060400160405280600581526020017f4d61796f7200000000000000000000000000000000000000000000000000000081525060405161032b9190611250565b908152602001604051809103902084838151811061034c5761034b6111e5565b5b6020026020010151600001516040516103659190611250565b90815260200160405180910390206000820151816000019081610388919061147d565b50602082015181600101908161039e919061147d565b5060408201518160020190816103b4919061147d565b5060608201518160030190816103ca919061147d565b5060808201518160040160006101000a81548161ffff021916908360010b61ffff16021790555090505060026040518060400160405280600581526020017f4d61796f720000000000000000000000000000000000000000000000000000008152506040516104399190611250565b908152602001604051809103902083828151811061045a576104596111e5565b5b602002602001015160000151908060018154018082558091505060019003906000526020600020016000909190919091509081610497919061147d565b5080806104a39061157e565b9150506102c2565b507f654c34e31901da1726d29d548403e7fc914fe7359fa8932b68acd21b82d8c97660405160405180910390a15050565b60008060008373ffffffffffffffffffffffffffffffffffffffff1673ffffffffffffffffffffffffffffffffffffffff16815260200190815260200160002060009054906101000a900460ff169050919050565b606060026040518060400160405280600581526020017f4d61796f720000000000000000000000000000000000000000000000000000008152506040516105789190611250565b9081526020016040518091039020805480602002602001604051908101604052809291908181526020016000905b828210156106525783829060005260206000200180546105c590611296565b80601f01602080910402602001604051908101604052809291908181526020018280546105f190611296565b801561063e5780601f106106135761010080835404028352916020019161063e565b820191906000526020600020905b81548152906001019060200180831161062157829003601f168201915b5050505050815260200190600101906105a6565b50505050905090565b60006001806040518060400160405280600581526020017f4d61796f720000000000000000000000000000000000000000000000000000008152506040516106a39190611250565b9081526020016040518091039020836040516106bf9190611250565b908152602001604051809103902060040160008282829054906101000a900460010b6106eb91906115c6565b92506101000a81548161ffff021916908360010b61ffff1602179055905060016000803373ffffffffffffffffffffffffffffffffffffffff1673ffffffffffffffffffffffffffffffffffffffff16815260200190815260200160002060006101000a81548160ff0219169083151502179055508060010b826040516107729190611250565b60405180910390207f92fff5520ff0b0f967c868dd32162b9cc4f65280077b64a94a4a6643f1a76d6560405160405180910390a35050565b6107b2610a98565b60016040518060400160405280600581526020017f4d61796f720000000000000000000000000000000000000000000000000000008152506040516107f79190611250565b9081526020016040518091039020826040516108139190611250565b90815260200160405180910390206040518060a001604052908160008201805461083c90611296565b80601f016020809104026020016040519081016040528092919081815260200182805461086890611296565b80156108b55780601f1061088a576101008083540402835291602001916108b5565b820191906000526020600020905b81548152906001019060200180831161089857829003601f168201915b505050505081526020016001820180546108ce90611296565b80601f01602080910402602001604051908101604052809291908181526020018280546108fa90611296565b80156109475780601f1061091c57610100808354040283529160200191610947565b820191906000526020600020905b81548152906001019060200180831161092a57829003601f168201915b5050505050815260200160028201805461096090611296565b80601f016020809104026020016040519081016040528092919081815260200182805461098c90611296565b80156109d95780601f106109ae576101008083540402835291602001916109d9565b820191906000526020600020905b8154815290600101906020018083116109bc57829003601f168201915b505050505081526020016003820180546109f290611296565b80601f0160208091040260200160405190810160405280929190818152602001828054610a1e90611296565b8015610a6b5780601f10610a4057610100808354040283529160200191610a6b565b820191906000526020600020905b815481529060010190602001808311610a4e57829003601f168201915b505050505081526020016004820160009054906101000a900460010b60010b60010b815250509050919050565b6040518060a0016040528060608152602001606081526020016060815260200160608152602001600060010b81525090565b6000604051905090565b600080fd5b600080fd5b600073ffffffffffffffffffffffffffffffffffffffff82169050919050565b6000610b0982610ade565b9050919050565b610b1981610afe565b8114610b2457600080fd5b50565b600081359050610b3681610b10565b92915050565b600060208284031215610b5257610b51610ad4565b5b6000610b6084828501610b27565b91505092915050565b60008115159050919050565b610b7e81610b69565b82525050565b6000602082019050610b996000830184610b75565b92915050565b610ba881610afe565b82525050565b6000602082019050610bc36000830184610b9f565b92915050565b600080fd5b6000601f19601f8301169050919050565b7f4e487b7100000000000000000000000000000000000000000000000000000000600052604160045260246000fd5b610c1782610bce565b810181811067ffffffffffffffff82111715610c3657610c35610bdf565b5b80604052505050565b6000610c49610aca565b9050610c558282610c0e565b919050565b600067ffffffffffffffff821115610c7557610c74610bdf565b5b602082029050602081019050919050565b600080fd5b600080fd5b600080fd5b600080fd5b600067ffffffffffffffff821115610cb557610cb4610bdf565b5b610cbe82610bce565b9050602081019050919050565b82818337600083830152505050565b6000610ced610ce884610c9a565b610c3f565b905082815260208101848484011115610d0957610d08610c95565b5b610d14848285610ccb565b509392505050565b600082601f830112610d3157610d30610bc9565b5b8135610d41848260208601610cda565b91505092915050565b60008160010b9050919050565b610d6081610d4a565b8114610d6b57600080fd5b50565b600081359050610d7d81610d57565b92915050565b600060a08284031215610d9957610d98610c8b565b5b610da360a0610c3f565b9050600082013567ffffffffffffffff811115610dc357610dc2610c90565b5b610dcf84828501610d1c565b600083015250602082013567ffffffffffffffff811115610df357610df2610c90565b5b610dff84828501610d1c565b602083015250604082013567ffffffffffffffff811115610e2357610e22610c90565b5b610e2f84828501610d1c565b604083015250606082013567ffffffffffffffff811115610e5357610e52610c90565b5b610e5f84828501610d1c565b6060830152506080610e7384828501610d6e565b60808301525092915050565b6000610e92610e8d84610c5a565b610c3f565b90508083825260208201905060208402830185811115610eb557610eb4610c86565b5b835b81811015610efc57803567ffffffffffffffff811115610eda57610ed9610bc9565b5b808601610ee78982610d83565b85526020850194505050602081019050610eb7565b5050509392505050565b600082601f830112610f1b57610f1a610bc9565b5b8135610f2b848260208601610e7f565b91505092915050565b600060208284031215610f4a57610f49610ad4565b5b600082013567ffffffffffffffff811115610f6857610f67610ad9565b5b610f7484828501610f06565b91505092915050565b600081519050919050565b600082825260208201905092915050565b6000819050602082019050919050565b600081519050919050565b600082825260208201905092915050565b60005b83811015610fe3578082015181840152602081019050610fc8565b60008484015250505050565b6000610ffa82610fa9565b6110048185610fb4565b9350611014818560208601610fc5565b61101d81610bce565b840191505092915050565b60006110348383610fef565b905092915050565b6000602082019050919050565b600061105482610f7d565b61105e8185610f88565b93508360208202850161107085610f99565b8060005b858110156110ac578484038952815161108d8582611028565b94506110988361103c565b925060208a01995050600181019050611074565b50829750879550505050505092915050565b600060208201905081810360008301526110d88184611049565b905092915050565b6000602082840312156110f6576110f5610ad4565b5b600082013567ffffffffffffffff81111561111457611113610ad9565b5b61112084828501610d1c565b91505092915050565b61113281610d4a565b82525050565b600060a08301600083015184820360008601526111558282610fef565b9150506020830151848203602086015261116f8282610fef565b915050604083015184820360408601526111898282610fef565b915050606083015184820360608601526111a38282610fef565b91505060808301516111b86080860182611129565b508091505092915050565b600060208201905081810360008301526111dd8184611138565b905092915050565b7f4e487b7100000000000000000000000000000000000000000000000000000000600052603260045260246000fd5b600081905092915050565b600061122a82610fa9565b6112348185611214565b9350611244818560208601610fc5565b80840191505092915050565b600061125c828461121f565b915081905092915050565b7f4e487b7100000000000000000000000000000000000000000000000000000000600052602260045260246000fd5b600060028204905060018216806112ae57607f821691505b6020821081036112c1576112c0611267565b5b50919050565b60008190508160005260206000209050919050565b60006020601f8301049050919050565b600082821b905092915050565b6000600883026113297fffffffffffffffffffffffffffffffffffffffffffffffffffffffffffffffff826112ec565b61133386836112ec565b95508019841693508086168417925050509392505050565b6000819050919050565b6000819050919050565b600061137a6113756113708461134b565b611355565b61134b565b9050919050565b6000819050919050565b6113948361135f565b6113a86113a082611381565b8484546112f9565b825550505050565b600090565b6113bd6113b0565b6113c881848461138b565b505050565b5b818110156113ec576113e16000826113b5565b6001810190506113ce565b5050565b601f82111561143157611402816112c7565b61140b846112dc565b8101602085101561141a578190505b61142e611426856112dc565b8301826113cd565b50505b505050565b600082821c905092915050565b600061145460001984600802611436565b1980831691505092915050565b600061146d8383611443565b9150826002028217905092915050565b61148682610fa9565b67ffffffffffffffff81111561149f5761149e610bdf565b5b6114a98254611296565b6114b48282856113f0565b600060209050601f8311600181146114e757600084156114d5578287015190505b6114df8582611461565b865550611547565b601f1984166114f5866112c7565b60005b8281101561151d578489015182556001820191506020850194506020810190506114f8565b8683101561153a5784890151611536601f891682611443565b8355505b6001600288020188555050505b505050505050565b7f4e487b7100000000000000000000000000000000000000000000000000000000600052601160045260246000fd5b60006115898261134b565b91507fffffffffffffffffffffffffffffffffffffffffffffffffffffffffffffffff82036115bb576115ba61154f565b5b600182019050919050565b60006115d182610d4a565b91506115dc83610d4a565b925082820190507fffffffffffffffffffffffffffffffffffffffffffffffffffffffffffff80008112617fff8213171561161a5761161961154f565b5b9291505056fea2646970667358221220b976a4a1391eafec447cee82ef91bb50bbd56a6899aebe8c5156204bfeaa977c64736f6c63430008110033",
  "linkReferences": {},
  "deployedLinkReferences": {}
}