{
  "_format": "hh-sol-artifact-1",
  "contractName": "Voting",
  "sourceName": "contracts/Voting.sol",
  "abi": [
    {
      "inputs": [],
      "stateMutability": "nonpayable",
      "type": "constructor"
    },
    {
      "inputs": [],
      "name": "Voting_CandidatesRequired",
      "type": "error"
    },
    {
      "inputs": [],
      "name": "Voting__AlreadyVoted",
      "type": "error"
    },
    {
      "inputs": [],
      "name": "Voting__NotOwner",
      "type": "error"
    },
    {
      "anonymous": false,
      "inputs": [],
      "name": "CandidatesAdded",
      "type": "event"
    },
    {
      "anonymous": false,
      "inputs": [
        {
          "indexed": true,
          "internalType": "string",
          "name": "id",
          "type": "string"
        },
        {
          "indexed": true,
          "internalType": "int16",
          "name": "voteCount",
          "type": "int16"
        }
      ],
      "name": "VotedSuccessfully",
      "type": "event"
    },
    {
      "inputs": [],
      "name": "getCandidatesId",
      "outputs": [
        {
          "internalType": "string[]",
          "name": "",
          "type": "string[]"
        }
      ],
      "stateMutability": "view",
      "type": "function"
    },
    {
      "inputs": [
        {
          "internalType": "string",
          "name": "_id",
          "type": "string"
        }
      ],
      "name": "getMayorCandidateById",
      "outputs": [
        {
          "components": [
            {
              "internalType": "string",
              "name": "id",
              "type": "string"
            },
            {
              "internalType": "string",
              "name": "name",
              "type": "string"
            },
            {
              "internalType": "string",
              "name": "image",
              "type": "string"
            },
            {
              "internalType": "string",
              "name": "party",
              "type": "string"
            },
            {
              "internalType": "int16",
              "name": "voteCount",
              "type": "int16"
            }
          ],
          "internalType": "struct Voting.Candidate",
          "name": "",
          "type": "tuple"
        }
      ],
      "stateMutability": "view",
      "type": "function"
    },
    {
      "inputs": [],
      "name": "getOwner",
      "outputs": [
        {
          "internalType": "address",
          "name": "",
          "type": "address"
        }
      ],
      "stateMutability": "view",
      "type": "function"
    },
    {
      "inputs": [
        {
          "internalType": "address",
          "name": "user",
          "type": "address"
        }
      ],
      "name": "isOwner",
      "outputs": [
        {
          "internalType": "bool",
          "name": "",
          "type": "bool"
        }
      ],
      "stateMutability": "view",
      "type": "function"
    },
    {
      "inputs": [
        {
          "internalType": "address",
          "name": "user",
          "type": "address"
        }
      ],
      "name": "isVoted",
      "outputs": [
        {
          "internalType": "bool",
          "name": "",
          "type": "bool"
        }
      ],
      "stateMutability": "view",
      "type": "function"
    },
    {
      "inputs": [
        {
          "components": [
            {
              "internalType": "string",
              "name": "id",
              "type": "string"
            },
            {
              "internalType": "string",
              "name": "name",
              "type": "string"
            },
            {
              "internalType": "string",
              "name": "image",
              "type": "string"
            },
            {
              "internalType": "string",
              "name": "party",
              "type": "string"
            },
            {
              "internalType": "int16",
              "name": "voteCount",
              "type": "int16"
            }
          ],
          "internalType": "struct Voting.Candidate[]",
          "name": "_candidates",
          "type": "tuple[]"
        }
      ],
      "name": "setMayorCandidates",
      "outputs": [],
      "stateMutability": "nonpayable",
      "type": "function"
    },
    {
      "inputs": [
        {
          "internalType": "string",
          "name": "_id",
          "type": "string"
        }
      ],
      "name": "voteMayor",
      "outputs": [],
      "stateMutability": "nonpayable",
      "type": "function"
    }
  ],
  "bytecode": "0x60a060405234801561001057600080fd5b503373ffffffffffffffffffffffffffffffffffffffff1660808173ffffffffffffffffffffffffffffffffffffffff16815250506080516116e1610067600039600081816101d9015261020001526116e16000f3fe608060405234801561001057600080fd5b506004361061007d5760003560e01c8063cbff75cb1161005b578063cbff75cb146100ec578063f3332fc91461011c578063fbf690af1461013a578063fecc16c0146101565761007d565b80632f54bf6e14610082578063893d20e8146100b2578063bd8d27a9146100d0575b600080fd5b61009c60048036038101906100979190610bc7565b610186565b6040516100a99190610c0f565b60405180910390f35b6100ba6101d5565b6040516100c79190610c39565b60405180910390f35b6100ea60048036038101906100e59190610fbf565b6101fd565b005b61010660048036038101906101019190610bc7565b6104dc565b6040516101139190610c0f565b60405180910390f35b610124610531565b6040516101319190611149565b60405180910390f35b610154600480360381019061014f919061116b565b61065b565b005b610170600480360381019061016b919061116b565b610835565b60405161017d919061124e565b60405180910390f35b60006101906101d5565b73ffffffffffffffffffffffffffffffffffffffff168273ffffffffffffffffffffffffffffffffffffffff16036101cb57600190506101d0565b600090505b919050565b60007f0000000000000000000000000000000000000000000000000000000000000000905090565b337f000000000000000000000000000000000000000000000000000000000000000073ffffffffffffffffffffffffffffffffffffffff168173ffffffffffffffffffffffffffffffffffffffff1614610283576040517fc63501f300000000000000000000000000000000000000000000000000000000815260040160405180910390fd5b6001825110156102bf576040517f5683750400000000000000000000000000000000000000000000000000000000815260040160405180910390fd5b60005b82518110156104ab578281815181106102de576102dd611270565b5b602002602001015160016040518060400160405280600581526020017f4d61796f7200000000000000000000000000000000000000000000000000000081525060405161032b91906112db565b908152602001604051809103902084838151811061034c5761034b611270565b5b60200260200101516000015160405161036591906112db565b908152602001604051809103902060008201518160000190816103889190611508565b50602082015181600101908161039e9190611508565b5060408201518160020190816103b49190611508565b5060608201518160030190816103ca9190611508565b5060808201518160040160006101000a81548161ffff021916908360010b61ffff16021790555090505060026040518060400160405280600581526020017f4d61796f7200000000000000000000000000000000000000000000000000000081525060405161043991906112db565b908152602001604051809103902083828151811061045a57610459611270565b5b6020026020010151600001519080600181540180825580915050600190039060005260206000200160009091909190915090816104979190611508565b5080806104a390611609565b9150506102c2565b507f654c34e31901da1726d29d548403e7fc914fe7359fa8932b68acd21b82d8c97660405160405180910390a15050565b60008060008373ffffffffffffffffffffffffffffffffffffffff1673ffffffffffffffffffffffffffffffffffffffff16815260200190815260200160002060009054906101000a900460ff169050919050565b606060026040518060400160405280600581526020017f4d61796f7200000000000000000000000000000000000000000000000000000081525060405161057891906112db565b9081526020016040518091039020805480602002602001604051908101604052809291908181526020016000905b828210156106525783829060005260206000200180546105c590611321565b80601f01602080910402602001604051908101604052809291908181526020018280546105f190611321565b801561063e5780601f106106135761010080835404028352916020019161063e565b820191906000526020600020905b81548152906001019060200180831161062157829003601f168201915b5050505050815260200190600101906105a6565b50505050905090565b33600115156000808373ffffffffffffffffffffffffffffffffffffffff1673ffffffffffffffffffffffffffffffffffffffff16815260200190815260200160002060009054906101000a900460ff161515036106e5576040517fd16df7f100000000000000000000000000000000000000000000000000000000815260040160405180910390fd5b60006001806040518060400160405280600581526020017f4d61796f7200000000000000000000000000000000000000000000000000000081525060405161072d91906112db565b90815260200160405180910390208460405161074991906112db565b908152602001604051809103902060040160008282829054906101000a900460010b6107759190611651565b92506101000a81548161ffff021916908360010b61ffff1602179055905060016000803373ffffffffffffffffffffffffffffffffffffffff1673ffffffffffffffffffffffffffffffffffffffff16815260200190815260200160002060006101000a81548160ff0219169083151502179055508060010b836040516107fc91906112db565b60405180910390207f92fff5520ff0b0f967c868dd32162b9cc4f65280077b64a94a4a6643f1a76d6560405160405180910390a3505050565b61083d610b23565b60016040518060400160405280600581526020017f4d61796f7200000000000000000000000000000000000000000000000000000081525060405161088291906112db565b90815260200160405180910390208260405161089e91906112db565b90815260200160405180910390206040518060a00160405290816000820180546108c790611321565b80601f01602080910402602001604051908101604052809291908181526020018280546108f390611321565b80156109405780601f1061091557610100808354040283529160200191610940565b820191906000526020600020905b81548152906001019060200180831161092357829003601f168201915b5050505050815260200160018201805461095990611321565b80601f016020809104026020016040519081016040528092919081815260200182805461098590611321565b80156109d25780601f106109a7576101008083540402835291602001916109d2565b820191906000526020600020905b8154815290600101906020018083116109b557829003601f168201915b505050505081526020016002820180546109eb90611321565b80601f0160208091040260200160405190810160405280929190818152602001828054610a1790611321565b8015610a645780601f10610a3957610100808354040283529160200191610a64565b820191906000526020600020905b815481529060010190602001808311610a4757829003601f168201915b50505050508152602001600382018054610a7d90611321565b80601f0160208091040260200160405190810160405280929190818152602001828054610aa990611321565b8015610af65780601f10610acb57610100808354040283529160200191610af6565b820191906000526020600020905b815481529060010190602001808311610ad957829003601f168201915b505050505081526020016004820160009054906101000a900460010b60010b60010b815250509050919050565b6040518060a0016040528060608152602001606081526020016060815260200160608152602001600060010b81525090565b6000604051905090565b600080fd5b600080fd5b600073ffffffffffffffffffffffffffffffffffffffff82169050919050565b6000610b9482610b69565b9050919050565b610ba481610b89565b8114610baf57600080fd5b50565b600081359050610bc181610b9b565b92915050565b600060208284031215610bdd57610bdc610b5f565b5b6000610beb84828501610bb2565b91505092915050565b60008115159050919050565b610c0981610bf4565b82525050565b6000602082019050610c246000830184610c00565b92915050565b610c3381610b89565b82525050565b6000602082019050610c4e6000830184610c2a565b92915050565b600080fd5b6000601f19601f8301169050919050565b7f4e487b7100000000000000000000000000000000000000000000000000000000600052604160045260246000fd5b610ca282610c59565b810181811067ffffffffffffffff82111715610cc157610cc0610c6a565b5b80604052505050565b6000610cd4610b55565b9050610ce08282610c99565b919050565b600067ffffffffffffffff821115610d0057610cff610c6a565b5b602082029050602081019050919050565b600080fd5b600080fd5b600080fd5b600080fd5b600067ffffffffffffffff821115610d4057610d3f610c6a565b5b610d4982610c59565b9050602081019050919050565b82818337600083830152505050565b6000610d78610d7384610d25565b610cca565b905082815260208101848484011115610d9457610d93610d20565b5b610d9f848285610d56565b509392505050565b600082601f830112610dbc57610dbb610c54565b5b8135610dcc848260208601610d65565b91505092915050565b60008160010b9050919050565b610deb81610dd5565b8114610df657600080fd5b50565b600081359050610e0881610de2565b92915050565b600060a08284031215610e2457610e23610d16565b5b610e2e60a0610cca565b9050600082013567ffffffffffffffff811115610e4e57610e4d610d1b565b5b610e5a84828501610da7565b600083015250602082013567ffffffffffffffff811115610e7e57610e7d610d1b565b5b610e8a84828501610da7565b602083015250604082013567ffffffffffffffff811115610eae57610ead610d1b565b5b610eba84828501610da7565b604083015250606082013567ffffffffffffffff811115610ede57610edd610d1b565b5b610eea84828501610da7565b6060830152506080610efe84828501610df9565b60808301525092915050565b6000610f1d610f1884610ce5565b610cca565b90508083825260208201905060208402830185811115610f4057610f3f610d11565b5b835b81811015610f8757803567ffffffffffffffff811115610f6557610f64610c54565b5b808601610f728982610e0e565b85526020850194505050602081019050610f42565b5050509392505050565b600082601f830112610fa657610fa5610c54565b5b8135610fb6848260208601610f0a565b91505092915050565b600060208284031215610fd557610fd4610b5f565b5b600082013567ffffffffffffffff811115610ff357610ff2610b64565b5b610fff84828501610f91565b91505092915050565b600081519050919050565b600082825260208201905092915050565b6000819050602082019050919050565b600081519050919050565b600082825260208201905092915050565b60005b8381101561106e578082015181840152602081019050611053565b60008484015250505050565b600061108582611034565b61108f818561103f565b935061109f818560208601611050565b6110a881610c59565b840191505092915050565b60006110bf838361107a565b905092915050565b6000602082019050919050565b60006110df82611008565b6110e98185611013565b9350836020820285016110fb85611024565b8060005b85811015611137578484038952815161111885826110b3565b9450611123836110c7565b925060208a019950506001810190506110ff565b50829750879550505050505092915050565b6000602082019050818103600083015261116381846110d4565b905092915050565b60006020828403121561118157611180610b5f565b5b600082013567ffffffffffffffff81111561119f5761119e610b64565b5b6111ab84828501610da7565b91505092915050565b6111bd81610dd5565b82525050565b600060a08301600083015184820360008601526111e0828261107a565b915050602083015184820360208601526111fa828261107a565b91505060408301518482036040860152611214828261107a565b9150506060830151848203606086015261122e828261107a565b915050608083015161124360808601826111b4565b508091505092915050565b6000602082019050818103600083015261126881846111c3565b905092915050565b7f4e487b7100000000000000000000000000000000000000000000000000000000600052603260045260246000fd5b600081905092915050565b60006112b582611034565b6112bf818561129f565b93506112cf818560208601611050565b80840191505092915050565b60006112e782846112aa565b915081905092915050565b7f4e487b7100000000000000000000000000000000000000000000000000000000600052602260045260246000fd5b6000600282049050600182168061133957607f821691505b60208210810361134c5761134b6112f2565b5b50919050565b60008190508160005260206000209050919050565b60006020601f8301049050919050565b600082821b905092915050565b6000600883026113b47fffffffffffffffffffffffffffffffffffffffffffffffffffffffffffffffff82611377565b6113be8683611377565b95508019841693508086168417925050509392505050565b6000819050919050565b6000819050919050565b60006114056114006113fb846113d6565b6113e0565b6113d6565b9050919050565b6000819050919050565b61141f836113ea565b61143361142b8261140c565b848454611384565b825550505050565b600090565b61144861143b565b611453818484611416565b505050565b5b818110156114775761146c600082611440565b600181019050611459565b5050565b601f8211156114bc5761148d81611352565b61149684611367565b810160208510156114a5578190505b6114b96114b185611367565b830182611458565b50505b505050565b600082821c905092915050565b60006114df600019846008026114c1565b1980831691505092915050565b60006114f883836114ce565b9150826002028217905092915050565b61151182611034565b67ffffffffffffffff81111561152a57611529610c6a565b5b6115348254611321565b61153f82828561147b565b600060209050601f8311600181146115725760008415611560578287015190505b61156a85826114ec565b8655506115d2565b601f19841661158086611352565b60005b828110156115a857848901518255600182019150602085019450602081019050611583565b868310156115c557848901516115c1601f8916826114ce565b8355505b6001600288020188555050505b505050505050565b7f4e487b7100000000000000000000000000000000000000000000000000000000600052601160045260246000fd5b6000611614826113d6565b91507fffffffffffffffffffffffffffffffffffffffffffffffffffffffffffffffff8203611646576116456115da565b5b600182019050919050565b600061165c82610dd5565b915061166783610dd5565b925082820190507fffffffffffffffffffffffffffffffffffffffffffffffffffffffffffff80008112617fff821317156116a5576116a46115da565b5b9291505056fea264697066735822122012b5a85517d9d580219302f29d2fe22f25f2b589b7a95220472492a09aebd54e64736f6c63430008110033",
  "linkReferences": {},
  "deployedLinkReferences": {}
}