{
  "_format": "hh-sol-artifact-1",
  "contractName": "Voting",
  "sourceName": "contracts/Voting.sol",
  "abi": [
    {
      "inputs": [],
      "stateMutability": "nonpayable",
      "type": "constructor"
    },
    {
      "inputs": [],
      "name": "Voting_CandidatesRequired",
      "type": "error"
    },
    {
      "inputs": [],
      "name": "Voting__AlreadyVoted",
      "type": "error"
    },
    {
      "inputs": [],
      "name": "Voting__NotOwner",
      "type": "error"
    },
    {
      "anonymous": false,
      "inputs": [],
      "name": "CandidatesAdded",
      "type": "event"
    },
    {
      "anonymous": false,
      "inputs": [
        {
          "indexed": true,
          "internalType": "string",
          "name": "id",
          "type": "string"
        },
        {
          "indexed": true,
          "internalType": "int16",
          "name": "voteCount",
          "type": "int16"
        }
      ],
      "name": "VotedSuccessfully",
      "type": "event"
    },
    {
      "inputs": [],
      "name": "getCandidatesId",
      "outputs": [
        {
          "internalType": "string[]",
          "name": "",
          "type": "string[]"
        }
      ],
      "stateMutability": "view",
      "type": "function"
    },
    {
      "inputs": [
        {
          "internalType": "string",
          "name": "_id",
          "type": "string"
        }
      ],
      "name": "getMayorCandidateById",
      "outputs": [
        {
          "components": [
            {
              "internalType": "string",
              "name": "id",
              "type": "string"
            },
            {
              "internalType": "string",
              "name": "name",
              "type": "string"
            },
            {
              "internalType": "string",
              "name": "image",
              "type": "string"
            },
            {
              "internalType": "string",
              "name": "party",
              "type": "string"
            },
            {
              "internalType": "int16",
              "name": "voteCount",
              "type": "int16"
            }
          ],
          "internalType": "struct Voting.Candidate",
          "name": "",
          "type": "tuple"
        }
      ],
      "stateMutability": "view",
      "type": "function"
    },
    {
      "inputs": [],
      "name": "getOwner",
      "outputs": [
        {
          "internalType": "address",
          "name": "",
          "type": "address"
        }
      ],
      "stateMutability": "view",
      "type": "function"
    },
    {
      "inputs": [
        {
          "internalType": "address",
          "name": "user",
          "type": "address"
        }
      ],
      "name": "isVoted",
      "outputs": [
        {
          "internalType": "bool",
          "name": "",
          "type": "bool"
        }
      ],
      "stateMutability": "view",
      "type": "function"
    },
    {
      "inputs": [
        {
          "components": [
            {
              "internalType": "string",
              "name": "id",
              "type": "string"
            },
            {
              "internalType": "string",
              "name": "name",
              "type": "string"
            },
            {
              "internalType": "string",
              "name": "image",
              "type": "string"
            },
            {
              "internalType": "string",
              "name": "party",
              "type": "string"
            },
            {
              "internalType": "int16",
              "name": "voteCount",
              "type": "int16"
            }
          ],
          "internalType": "struct Voting.Candidate[]",
          "name": "_candidates",
          "type": "tuple[]"
        }
      ],
      "name": "setMayorCandidates",
      "outputs": [],
      "stateMutability": "nonpayable",
      "type": "function"
    },
    {
      "inputs": [
        {
          "internalType": "string",
          "name": "_id",
          "type": "string"
        }
      ],
      "name": "voteMayor",
      "outputs": [],
      "stateMutability": "nonpayable",
      "type": "function"
    }
  ],
  "bytecode": "0x60a060405234801561001057600080fd5b503373ffffffffffffffffffffffffffffffffffffffff1660808173ffffffffffffffffffffffffffffffffffffffff16815250506080516116476100676000396000818161013f015261016601526116476000f3fe608060405234801561001057600080fd5b50600436106100625760003560e01c8063893d20e814610067578063bd8d27a914610085578063cbff75cb146100a1578063f3332fc9146100d1578063fbf690af146100ef578063fecc16c01461010b575b600080fd5b61006f61013b565b60405161007c9190610afc565b60405180910390f35b61009f600480360381019061009a9190610e96565b610163565b005b6100bb60048036038101906100b69190610f0b565b610442565b6040516100c89190610f53565b60405180910390f35b6100d9610497565b6040516100e691906110af565b60405180910390f35b610109600480360381019061010491906110d1565b6105c1565b005b610125600480360381019061012091906110d1565b61079b565b60405161013291906111b4565b60405180910390f35b60007f0000000000000000000000000000000000000000000000000000000000000000905090565b337f000000000000000000000000000000000000000000000000000000000000000073ffffffffffffffffffffffffffffffffffffffff168173ffffffffffffffffffffffffffffffffffffffff16146101e9576040517fc63501f300000000000000000000000000000000000000000000000000000000815260040160405180910390fd5b600182511015610225576040517f5683750400000000000000000000000000000000000000000000000000000000815260040160405180910390fd5b60005b825181101561041157828181518110610244576102436111d6565b5b602002602001015160016040518060400160405280600581526020017f4d61796f720000000000000000000000000000000000000000000000000000008152506040516102919190611241565b90815260200160405180910390208483815181106102b2576102b16111d6565b5b6020026020010151600001516040516102cb9190611241565b908152602001604051809103902060008201518160000190816102ee919061146e565b506020820151816001019081610304919061146e565b50604082015181600201908161031a919061146e565b506060820151816003019081610330919061146e565b5060808201518160040160006101000a81548161ffff021916908360010b61ffff16021790555090505060026040518060400160405280600581526020017f4d61796f7200000000000000000000000000000000000000000000000000000081525060405161039f9190611241565b90815260200160405180910390208382815181106103c0576103bf6111d6565b5b6020026020010151600001519080600181540180825580915050600190039060005260206000200160009091909190915090816103fd919061146e565b5080806104099061156f565b915050610228565b507f654c34e31901da1726d29d548403e7fc914fe7359fa8932b68acd21b82d8c97660405160405180910390a15050565b60008060008373ffffffffffffffffffffffffffffffffffffffff1673ffffffffffffffffffffffffffffffffffffffff16815260200190815260200160002060009054906101000a900460ff169050919050565b606060026040518060400160405280600581526020017f4d61796f720000000000000000000000000000000000000000000000000000008152506040516104de9190611241565b9081526020016040518091039020805480602002602001604051908101604052809291908181526020016000905b828210156105b857838290600052602060002001805461052b90611287565b80601f016020809104026020016040519081016040528092919081815260200182805461055790611287565b80156105a45780601f10610579576101008083540402835291602001916105a4565b820191906000526020600020905b81548152906001019060200180831161058757829003601f168201915b50505050508152602001906001019061050c565b50505050905090565b33600115156000808373ffffffffffffffffffffffffffffffffffffffff1673ffffffffffffffffffffffffffffffffffffffff16815260200190815260200160002060009054906101000a900460ff1615150361064b576040517fd16df7f100000000000000000000000000000000000000000000000000000000815260040160405180910390fd5b60006001806040518060400160405280600581526020017f4d61796f720000000000000000000000000000000000000000000000000000008152506040516106939190611241565b9081526020016040518091039020846040516106af9190611241565b908152602001604051809103902060040160008282829054906101000a900460010b6106db91906115b7565b92506101000a81548161ffff021916908360010b61ffff1602179055905060016000803373ffffffffffffffffffffffffffffffffffffffff1673ffffffffffffffffffffffffffffffffffffffff16815260200190815260200160002060006101000a81548160ff0219169083151502179055508060010b836040516107629190611241565b60405180910390207f92fff5520ff0b0f967c868dd32162b9cc4f65280077b64a94a4a6643f1a76d6560405160405180910390a3505050565b6107a3610a89565b60016040518060400160405280600581526020017f4d61796f720000000000000000000000000000000000000000000000000000008152506040516107e89190611241565b9081526020016040518091039020826040516108049190611241565b90815260200160405180910390206040518060a001604052908160008201805461082d90611287565b80601f016020809104026020016040519081016040528092919081815260200182805461085990611287565b80156108a65780601f1061087b576101008083540402835291602001916108a6565b820191906000526020600020905b81548152906001019060200180831161088957829003601f168201915b505050505081526020016001820180546108bf90611287565b80601f01602080910402602001604051908101604052809291908181526020018280546108eb90611287565b80156109385780601f1061090d57610100808354040283529160200191610938565b820191906000526020600020905b81548152906001019060200180831161091b57829003601f168201915b5050505050815260200160028201805461095190611287565b80601f016020809104026020016040519081016040528092919081815260200182805461097d90611287565b80156109ca5780601f1061099f576101008083540402835291602001916109ca565b820191906000526020600020905b8154815290600101906020018083116109ad57829003601f168201915b505050505081526020016003820180546109e390611287565b80601f0160208091040260200160405190810160405280929190818152602001828054610a0f90611287565b8015610a5c5780601f10610a3157610100808354040283529160200191610a5c565b820191906000526020600020905b815481529060010190602001808311610a3f57829003601f168201915b505050505081526020016004820160009054906101000a900460010b60010b60010b815250509050919050565b6040518060a0016040528060608152602001606081526020016060815260200160608152602001600060010b81525090565b600073ffffffffffffffffffffffffffffffffffffffff82169050919050565b6000610ae682610abb565b9050919050565b610af681610adb565b82525050565b6000602082019050610b116000830184610aed565b92915050565b6000604051905090565b600080fd5b600080fd5b600080fd5b6000601f19601f8301169050919050565b7f4e487b7100000000000000000000000000000000000000000000000000000000600052604160045260246000fd5b610b7982610b30565b810181811067ffffffffffffffff82111715610b9857610b97610b41565b5b80604052505050565b6000610bab610b17565b9050610bb78282610b70565b919050565b600067ffffffffffffffff821115610bd757610bd6610b41565b5b602082029050602081019050919050565b600080fd5b600080fd5b600080fd5b600080fd5b600067ffffffffffffffff821115610c1757610c16610b41565b5b610c2082610b30565b9050602081019050919050565b82818337600083830152505050565b6000610c4f610c4a84610bfc565b610ba1565b905082815260208101848484011115610c6b57610c6a610bf7565b5b610c76848285610c2d565b509392505050565b600082601f830112610c9357610c92610b2b565b5b8135610ca3848260208601610c3c565b91505092915050565b60008160010b9050919050565b610cc281610cac565b8114610ccd57600080fd5b50565b600081359050610cdf81610cb9565b92915050565b600060a08284031215610cfb57610cfa610bed565b5b610d0560a0610ba1565b9050600082013567ffffffffffffffff811115610d2557610d24610bf2565b5b610d3184828501610c7e565b600083015250602082013567ffffffffffffffff811115610d5557610d54610bf2565b5b610d6184828501610c7e565b602083015250604082013567ffffffffffffffff811115610d8557610d84610bf2565b5b610d9184828501610c7e565b604083015250606082013567ffffffffffffffff811115610db557610db4610bf2565b5b610dc184828501610c7e565b6060830152506080610dd584828501610cd0565b60808301525092915050565b6000610df4610def84610bbc565b610ba1565b90508083825260208201905060208402830185811115610e1757610e16610be8565b5b835b81811015610e5e57803567ffffffffffffffff811115610e3c57610e3b610b2b565b5b808601610e498982610ce5565b85526020850194505050602081019050610e19565b5050509392505050565b600082601f830112610e7d57610e7c610b2b565b5b8135610e8d848260208601610de1565b91505092915050565b600060208284031215610eac57610eab610b21565b5b600082013567ffffffffffffffff811115610eca57610ec9610b26565b5b610ed684828501610e68565b91505092915050565b610ee881610adb565b8114610ef357600080fd5b50565b600081359050610f0581610edf565b92915050565b600060208284031215610f2157610f20610b21565b5b6000610f2f84828501610ef6565b91505092915050565b60008115159050919050565b610f4d81610f38565b82525050565b6000602082019050610f686000830184610f44565b92915050565b600081519050919050565b600082825260208201905092915050565b6000819050602082019050919050565b600081519050919050565b600082825260208201905092915050565b60005b83811015610fd4578082015181840152602081019050610fb9565b60008484015250505050565b6000610feb82610f9a565b610ff58185610fa5565b9350611005818560208601610fb6565b61100e81610b30565b840191505092915050565b60006110258383610fe0565b905092915050565b6000602082019050919050565b600061104582610f6e565b61104f8185610f79565b93508360208202850161106185610f8a565b8060005b8581101561109d578484038952815161107e8582611019565b94506110898361102d565b925060208a01995050600181019050611065565b50829750879550505050505092915050565b600060208201905081810360008301526110c9818461103a565b905092915050565b6000602082840312156110e7576110e6610b21565b5b600082013567ffffffffffffffff81111561110557611104610b26565b5b61111184828501610c7e565b91505092915050565b61112381610cac565b82525050565b600060a08301600083015184820360008601526111468282610fe0565b915050602083015184820360208601526111608282610fe0565b9150506040830151848203604086015261117a8282610fe0565b915050606083015184820360608601526111948282610fe0565b91505060808301516111a9608086018261111a565b508091505092915050565b600060208201905081810360008301526111ce8184611129565b905092915050565b7f4e487b7100000000000000000000000000000000000000000000000000000000600052603260045260246000fd5b600081905092915050565b600061121b82610f9a565b6112258185611205565b9350611235818560208601610fb6565b80840191505092915050565b600061124d8284611210565b915081905092915050565b7f4e487b7100000000000000000000000000000000000000000000000000000000600052602260045260246000fd5b6000600282049050600182168061129f57607f821691505b6020821081036112b2576112b1611258565b5b50919050565b60008190508160005260206000209050919050565b60006020601f8301049050919050565b600082821b905092915050565b60006008830261131a7fffffffffffffffffffffffffffffffffffffffffffffffffffffffffffffffff826112dd565b61132486836112dd565b95508019841693508086168417925050509392505050565b6000819050919050565b6000819050919050565b600061136b6113666113618461133c565b611346565b61133c565b9050919050565b6000819050919050565b61138583611350565b61139961139182611372565b8484546112ea565b825550505050565b600090565b6113ae6113a1565b6113b981848461137c565b505050565b5b818110156113dd576113d26000826113a6565b6001810190506113bf565b5050565b601f821115611422576113f3816112b8565b6113fc846112cd565b8101602085101561140b578190505b61141f611417856112cd565b8301826113be565b50505b505050565b600082821c905092915050565b600061144560001984600802611427565b1980831691505092915050565b600061145e8383611434565b9150826002028217905092915050565b61147782610f9a565b67ffffffffffffffff8111156114905761148f610b41565b5b61149a8254611287565b6114a58282856113e1565b600060209050601f8311600181146114d857600084156114c6578287015190505b6114d08582611452565b865550611538565b601f1984166114e6866112b8565b60005b8281101561150e578489015182556001820191506020850194506020810190506114e9565b8683101561152b5784890151611527601f891682611434565b8355505b6001600288020188555050505b505050505050565b7f4e487b7100000000000000000000000000000000000000000000000000000000600052601160045260246000fd5b600061157a8261133c565b91507fffffffffffffffffffffffffffffffffffffffffffffffffffffffffffffffff82036115ac576115ab611540565b5b600182019050919050565b60006115c282610cac565b91506115cd83610cac565b925082820190507fffffffffffffffffffffffffffffffffffffffffffffffffffffffffffff80008112617fff8213171561160b5761160a611540565b5b9291505056fea2646970667358221220e67c5081118214f4c8a95eb4b304eaa3e691d45b57d7c0f256314cb800195e9c64736f6c63430008110033",
  "linkReferences": {},
  "deployedLinkReferences": {}
}